:1000000019C033C032C031C030C02FC02EC02DC087
:100010002CC02BC02AC029C028C027C026C025C09C
:1000200024C023C022C021C020C000C11EC01DC0EA
:100030001CC01BC011241FBECFEFD2E0DEBFCDBF5E
:1000400011E0A0E0B1E0E2EEF3E002C005900D9215
:10005000AA32B107D9F721E0AAE2B1E001C01D92AE
:10006000AF32B207E1F728D1BAC1CACFEF92FF92FF
:100070000F931F93FB0179016417750789F09C01A9
:10008000261B370BD801AE19BF093CD19A012E1B94
:100090003F0B432F440F440B542F7FD1E20EF31E2E
:1000A000C7011F910F91FF90EF900895EF92FF927B
:1000B0000F931F93CF93DF93E901780168177907B6
:1000C00064F48417950744F4D1DFC817D9070CF4FA
:1000D000EC01EC16FD060CF4E701CE01DF91CF91A7
:1000E0001F910F91FF90EF9008951092C50083E348
:1000F0008093C40088E08093C10086E08093C200B2
:1001000008959091C00095FFFCCF8093C60008959C
:10011000CF93DF93EC018881811103C0DF91CF91F0
:1001200008952196EEDFF7CF0F931F93CF93DF93C0
:1001300000D000D000D0CDB7DEB79C011E82892B45
:1001400061F480E30F900F900F900F900F900F903D
:10015000DF91CF911F910F91D4CFFE0136960AE027
:1001600010E0C901B801E3D0805D8293C9019B0111
:100170000A97B8F78F01F801808181110BC00F90A9
:100180000F900F900F900F900F90DF91CF911F91D4
:100190000F9108950F5F1F4FB4DFEDCFCF93DF9323
:1001A00000D0CDB7DEB789839A8380E091E0B0DFDD
:1001B00089819A81B9DF86E091E0AADF29813A81BD
:1001C000A8E8B3E1A5D02FEF33E040E050E0C3D082
:1001D000C90168EE73E0ABD089839A83CB01A4DFB9
:1001E00089E091E095DF89819A8164E670E09FD093
:1001F000CB019ADF8BE091E00F900F90DF91CF91D0
:1002000087CFECE7F0E080E480838081807F80838B
:10021000EAE78FE880838081806480830895569A1E
:1002200083E884BD83E085BD17BC08951F920F92BB
:100230000FB60F9211240F931F932F933F934F9359
:100240005F936F937F938F939F93AF93BF93EF933E
:10025000FF93809178009091790090932E01809384
:100260002D0181E080932A0180912D0190912E0132
:100270000AEF10E025E030E0A801B90196958795D6
:100280009695879513DF87BDEAE7F0E0808180646B
:100290008083FF91EF91BF91AF919F918F917F915B
:1002A0006F915F914F913F912F911F910F910F90FF
:1002B0000FBE0F901F901895B2DFA3DF16DF789462
:1002C00080E191E025DF80912A01811591F0209154
:1002D0002B0130912C0180912D0190912E01281736
:1002E000390739F010922A0180912D0190912E0149
:1002F00055DF80912D0190912E0190932C018093D8
:100300002B01E1CF05D0332312F48A1B9B0B62C073
:10031000A29FB001B39FC001A39F700D811D112446
:10032000911DB29F700D811D1124911D0895AA1B6E
:10033000BB1B51E107C0AA1FBB1FA617B70710F0D0
:10034000A61BB70B881F991F5A95A9F78095909502
:10035000BC01CD010895A1E21A2EAA1BBB1BFD0111
:100360000DC0AA1FBB1FEE1FFF1FA217B307E40794
:10037000F50720F0A21BB30BE40BF50B661F771FEC
:10038000881F991F1A9469F76095709580959095CC
:100390009B01AC01BD01CF010895052E97FB16F41A
:1003A00000940FD057FD05D0D6DF07FC02D046F4ED
:1003B00008C050954095309521953F4F4F4F5F4F66
:1003C000089590958095709561957F4F8F4F9F4FC1
:1003D00008959EDFB7FF0895821B930B0895F8944C
:0203E000FFCF4D
:1003E2004144433A20002028002E0056290D0A00DD
:1003F2000D0A4144432D3E50574D20537973746585
:0A0402006D2052656164790D0A0057
:00000001FF
