:1000000019C033C032C031C030C02FC02EC02DC087
:100010002CC02BC02AC029C028C027C026C025C09C
:1000200024C023C022C021C020C0C1C01EC01DC02A
:100030001CC01BC011241FBECFEFD2E0DEBFCDBF5E
:1000400011E0A0E0B1E0E8E1F3E002C005900D921C
:10005000AA32B107D9F721E0AAE2B1E001C01D92AE
:10006000AF32B207E1F7EBD055C1CACF1092C5004D
:1000700083E38093C40088E08093C10086E080938E
:10008000C20008959091C00095FFFCCF8093C600F8
:100090000895CF93DF93EC018881811103C0DF9134
:1000A000CF9108952196EEDFF7CF0F931F93CF9353
:1000B000DF9300D000D000D0CDB7DEB79C011E8208
:1000C000892B61F480E30F900F900F900F900F90A9
:1000D0000F90DF91CF911F910F91D4CFFE013696F3
:1000E0000AE010E0C901B801DFD0805D8293C90148
:1000F0009B010A97B8F78F01F801808181110BC02D
:100100000F900F900F900F900F900F90DF91CF9165
:100110001F910F9108950F5F1F4FB4DFEDCFCF9365
:10012000DF9300D0CDB7DEB789839A8380E091E07A
:10013000B0DF89819A81B9DF86E091E0AADF298169
:100140003A81A8E8B3E1A1D02FEF33E040E050E0DE
:10015000BFD0C90168EE73E0A7D089839A83CB0131
:10016000A4DF89E091E095DF89819A8164E670E0FF
:100170009BD0CB019ADF8BE091E00F900F90DF9145
:10018000CF9187CFECE7F0E080E480838081807FAF
:100190008083EAE78FE8808380818064808308958C
:1001A000569A83E884BD83E085BD17BC08952F93DC
:1001B0002FB72F938F939F93809178009091790020
:1001C00090932E0180932D0181E080932A018091EC
:1001D0002D0190912E01489700F585E090E09093D5
:1001E0002E0180932D0187BD80912D0190912E01CC
:1001F000883E9340D8F08AEF90E090932E01809350
:100200002D0187BD80917A00806480937A009F9150
:100210008F912F912FBF2F91189580912D01909143
:100220002E019695879596958795DDCF80912D0126
:1002300090912E019695879596958795E2CFB0DFA0
:10024000A1DF14DF789480E191E023DF80912A011F
:10025000811591F020912B0130912C0180912D017D
:1002600090912E012817390739F010922A018091B8
:100270002D0190912E0153DF80912D0190912E013F
:1002800090932C0180932B01E1CFA29FB001B39FEB
:10029000C001A39F700D811D1124911DB29F700D8F
:1002A000811D1124911D0895AA1BBB1B51E107C09C
:1002B000AA1FBB1FA617B70710F0A61BB70B881FF6
:1002C000991F5A95A9F780959095BC01CD01089585
:1002D000A1E21A2EAA1BBB1BFD010DC0AA1FBB1F4A
:1002E000EE1FFF1FA217B307E407F50720F0A21BBC
:1002F000B30BE40BF50B661F771F881F991F1A9429
:1003000069F760957095809590959B01AC01BD0152
:08031000CF010895F894FFCF1E
:100318004144433A20002028002E0056290D0A00A7
:100328000D0A4144432D3E50574D2053797374654F
:0A0338006D2052656164790D0A0022
:00000001FF
