:1000000019C033C032C031C030C02FC02EC02DC087
:100010002CC02BC02AC029C028C027C026C025C09C
:1000200054C123C022C021C020C0EBC11EC01DC0CE
:100030001CC01BC011241FBECFEFD2E0DEBFCDBF5E
:1000400011E0A0E0B1E0E2E4F5E002C005900D921D
:10005000A233B107D9F721E0A2E3B1E001C01D92BC
:10006000AA33B207E1F7EDD16AC2CACFCF93DF93CB
:1000700000D000D0CDB7DEB71C821B821A82198255
:100080008BE090E0019741F58B819C816AE070E004
:10009000FED17A83698389819A818130924038F0D8
:1000A00089819A81925090933301809332018981A2
:1000B0009A81923050F429813A8180E092E0821B4B
:1000C000930B90933301809332010F900F900F9018
:1000D0000F90DF91CF910895209134013091350137
:1000E000232BD1F310923501109234014091380145
:1000F000509139012B813C81240F351F3C832B8388
:10010000C1CFEF92FF920F931F93FB017901641708
:10011000750789F09C01261B370BD801AE19BF0962
:10012000A1D19A012E1B3F0B432F440F440B542F98
:10013000E4D1E20EF31EC7011F910F91FF90EF90E3
:100140000895EF92FF920F931F93CF93DF93E901EE
:1001500078016817790764F48417950744F4D1DFB0
:10016000C817D9070CF4EC01EC16FD060CF4E701F6
:10017000CE01DF91CF911F910F91FF90EF900895E5
:100180001092C50083E38093C40088E08093C1008F
:1001900086E08093C20008959091C00095FFFCCF47
:1001A0008093C6000895CF93DF93EC01888181117D
:1001B00003C0DF91CF9108952196EEDFF7CF0F9323
:1001C0001F93CF93DF9300D000D000D0CDB7DEB720
:1001D0009C011E82892B61F480E30F900F900F9099
:1001E0000F900F900F90DF91CF911F910F91D4CF6F
:1001F000FE0136960AE010E0C901B80148D1805DE1
:100200008293C9019B010A97B8F78F01F801808199
:1002100081110BC00F900F900F900F900F900F90C7
:10022000DF91CF911F910F9108950F5F1F4FB4DFA2
:10023000EDCFCF93DF9300D0CDB7DEB789839A831C
:1002400080E091E0B0DF89819A81B9DF86E091E0BA
:10025000AADF29813A81A8E8B3E10AD12FEF33E080
:1002600040E050E028D1C90168EE73E010D18983E5
:100270009A83CB01A4DF89E091E095DF89819A819F
:1002800064E670E004D1CB019ADF8BE091E00F903F
:100290000F90DF91CF9187CFECE7F0E080E480838F
:1002A0008081807F8083EAE78FE88083808180641B
:1002B00080830895569A83E884BD83E085BD81E0FC
:1002C00080936E0016BC17BC08951F920F920FB654
:1002D0000F9211240F931F932F933F934F935F938C
:1002E0006F937F938F939F93AF93BF93EF93FF93FE
:1002F0008091340190913501892B09F467C02091D8
:1003000036013091370180913801909139012817D9
:10031000390709F45BC010923501109234018091C5
:10032000380190913901969587959695879581DF4B
:10033000809138019091390120913201309133013F
:10034000969587959695879582179307C0F4809127
:10035000380190913901E0913201F0913301969585
:100360008795969587950AEF10E025E030E04FEFEE
:1003700050E060E070E08E0F9F1FE3DE87BD80914C
:1003800038019091390120913201309133019695D5
:1003900087959695879528173907C0F4809138017D
:1003A00090913901E0913201F09133019695879552
:1003B000969587950AEF10E025E030E04FEF50E08A
:1003C00060E070E08E1B9F0BBCDE87BD8091380122
:1003D000909139019093370180933601FF91EF910D
:1003E000BF91AF919F918F917F916F915F914F914D
:1003F0003F912F911F910F910F900FBE0F901F9063
:1004000018958F938FB78F939F93EF93FF9380915E
:10041000780090917900909339018093380181E0C0
:1004200090E09093350180933401EAE7F0E0808119
:1004300080648083FF91EF919F918F918FBF8F9107
:10044000189538DF29DF9CDE789480E191E0ABDEFF
:100450000DDE8091320190913301B1DE8FE191E0A8
:10046000A2DEFFCF05D0332312F48A1B9B0B62C0A0
:10047000A29FB001B39FC001A39F700D811D1124E5
:10048000911DB29F700D811D1124911D0895AA1B0D
:10049000BB1B51E107C0AA1FBB1FA617B70710F06F
:1004A000A61BB70B881F991F5A95A9F780959095A1
:1004B000BC01CD010895A1E21A2EAA1BBB1BFD01B0
:1004C0000DC0AA1FBB1FEE1FFF1FA217B307E40733
:1004D000F50720F0A21BB30BE40BF50B661F771F8B
:1004E000881F991F1A9469F760957095809590956B
:1004F0009B01AC01BD01CF010895052E97FB16F4B9
:1005000000940FD057FD05D0D6DF07FC02D046F48B
:1005100008C050954095309521953F4F4F4F5F4F04
:10052000089590958095709561957F4F8F4F9F4F5F
:1005300008959EDFB7FF0895821B930B0895F894EA
:02054000FFCFEB
:100542004144433A20002028002E0056290D0A007B
:1005520048616C6C206F6666736574203D20000DE7
:100562000A53797374656D205265616479210D0AAD
:02057200000087
:00000001FF
